:020000006C286A
:0C00060083120D088A000C08820008001C
:1000120083120313C8010830CC00400DC80D4408F8
:10002200C80203181628C8070310C00DCC0B0E28EF
:020032000800C4
:1000340083120313CB01CA01C9018030C800C10C6B
:10004400C00C031C2E284408C90745080318450F93
:10005400CA070318CB0A0310C01F36284408CA076E
:1000640045080318450FCB07CB0CCA0CC90CC80CA8
:10007400031C21284B08C3004A08C2004908C100D8
:060084004808C00008005E
:10008A0003208A110A128000840A8C0A03198D0A35
:08009A00C003031D4528080006
:1000A2000A308312C4001008C000092040088E00E4
:1000B2008F010E08C0000F08C1000A30C4000030D2
:1000C200C5001A204008100293004108031C013E9B
:0600D200940194020800F5
:1000D8001C308316850086018312051485105C3058
:1000E80086000330CB008A30CC005530CD00CD0BD4
:1000F8007B28CC0B7B28CB0B7B28000000006B30C7
:1001080086000330CB004930CC006630CD00CD0BE3
:100118008B28CC0B8B28CB0B8B280000512091010E
:100128002D3011020318CE280E08F23EC000003010
:100138000318013E0F07C10040088C0041088D00DC
:1001480003208A110A128600051485100230CC009B
:100158004B30CD00CD0BAE28CC0BAE281308F23EA9
:10016800C00000300318013E1407C10040088C008D
:1001780041088D0003208A110A1286000510851493
:100188000230CC004B30CD00CD0BC828CC0BC82892
:10019800910A94289101083011020318F0280519D2
:1001A800D628D328851DE8281108013EC000013053
:1001B8000318013EC10040088C0041088D0003204F
:1001C8008A110A129200E928920112089004051D6A
:0C01D800EE28EB28910ACF289228F1288D
:1001E400773411346B346E345C343E341F346434ED
:0E01F4007F347C343B343B343B343B343B346F
:10020200013402340434083410342034403480344D
:02400E00F93F78
:00000001FF
