:020000004E2888
:0C000600831210088A000F088200080016
:1000120083120313C8010830CC00400DC80D4408F8
:10002200C80203181628C8070310C00DCC0B0E28EF
:020032000800C4
:10003400831203134008C100C0010830CC004108FA
:10004400C40C03182928CC0B2228C1010034031046
:100054002E28C40C0318C107C10CC00CCC0B2B28D0
:02006400080092
:1000660003208A110A128000840A8F0A0319900A53
:08007600C003031D332808003C
:10007E000A308312C4001208C00009204008910003
:0E008E000A30C4001A20400812028C0008003C
:10009C001C308316850086018312051411308600EE
:1000AC000230CB000430CC00BA30CD00CD0B5C2834
:1000BC00CC0B5C28CB0B5C2800006B30860002302C
:1000CC00CB000430CC00BA30CD00CD0B6B28CC0B60
:1000DC006B28CB0B6B2800006E3086000230CB00F7
:1000EC000430CC00BA30CD00CD0B7A28CC0B7A285A
:1000FC00CB0B7A2800005C3086000230CB00043039
:10010C00CC00BA30CD00CD0B8928CC0B8928CB0B79
:10011C00892800003E3086000230CB000430CC0031
:10012C00BA30CD00CD0B9828CC0B9828CB0B982847
:10013C000000013092003F208D012D300D0203187C
:10014C00DB281108003EC00001300318013EC1003D
:10015C0040088F004108900003208A110A12860083
:10016C00051485100230CC004B30CD00CD0BBC28D3
:10017C00CC0BBC280C08003EC00001300318013E1B
:10018C00C10040088F004108900003208A110A1218
:10019C008600051085140230CC004B30CD00CD0B01
:1001AC00D528CC0BD5288D0AA32892018D010830B7
:1001BC000D020318FE280519E428E128851DF628F0
:1001CC000D080A3EC00001300318013EC100400872
:1001DC008F004108900003208A110A128E00F72824
:1001EC008E010E089204051DFC28F9288D0ADD28C5
:0401FC00A128FF280F
:10020000773411346B346E345C343E341F346434D0
:040210007F347C3487
:10021400013402340434083410342034403480343B
:02400E00FB3F76
:00000001FF
