:02000000552881
:0C00060083120F088A000E088200080018
:10001200A5308312CD00CD0B0C2800000000080093
:10002200831296011208C1000130C0004108031971
:100032001E28C00D4010FF3E1828400895001108E8
:10004200840040080005C10041080130031D003052
:10005200C0001408C006031946281308003C031800
:1000620036280920092093032E2811088400150838
:100072000005C10041080130031D0030C000140812
:10008200C00603194628FF3096001608C000080073
:1000920003208A110A128000840A8E0A03198F0A29
:0800A200C003031D49280800FA
:1000AA000130831685008601831285019001023092
:1000BA0085000330CD00CD0B6028000000008501CB
:1000CA000530910092010130930001309400112013
:1000DA0083124008031973288C01752801308C009B
:1000EA000C08900401308D0008300D020318AE2868
:1000FA00000000000000000000000000043085003D
:10010A008C01053091009201013093000130940076
:10011A00112083124008031994288C01A3280D0882
:10012A00B23EC00000300318013EC10040088E00F4
:10013A0041088F0003208A110A128C000C089004CF
:10014A0000000000000000000000000085018D0A88
:0A015A007928100886005928B12802
:1001640001340234043408341034203440348034EC
:02400E00F93F78
:00000001FF
