:020000040000FA
:1000000083160130850086018312850186018C01EB
:10001000850186018C0185145F3080000A308100E3
:10002000800B1328810B1028152885104220051CF1
:100030000C14392039203920392039203920392031
:100040000C18861786138C18061706130C198616BB
:1000500086128C19061606120C1A861586118C1A31
:10006000061506110C1B861486108C1B0614061030
:10007000082842200515051C8C0D0C144220051182
:1000800008004128AF30820005308300820B4928E8
:06009000820B4628080067
:02400E00F73F7A
:00000001FF
