:02000000552881
:0C00060083120D088A000C08820008001C
:10001200A5308312CD00CD0B0C2800000000080093
:10002200831296011208C1000130C0004108031971
:100032001E28C00D4010FF3E1828400895001108E8
:10004200840040080005C10041080130031D003052
:10005200C0001408C006031946281308003C031800
:1000620036280920092093032E2811088400150838
:100072000005C10041080130031D0030C000140812
:10008200C00603194628FF3096001608C000080073
:1000920003208A110A128000840A8C0A03198D0A2D
:0800A200C003031D49280800FA
:1000AA000130831685008601831285019001023092
:1000BA0085000330CC009730CD00CD0B6228CC0BE5
:1000CA0062280000000085010230CC004B30CD00D0
:1000DA00CD0B6D28CC0B6D280530910092010130B3
:1000EA0093000130940011208312400803197F28DD
:1000FA008E01812801308E000E08900401308F0095
:10010A0008300F020318BE280230CC004B30CD0055
:10011A00CD0B8D28CC0B8D28043085008E0105303F
:10012A009100920101309300013094001120831252
:10013A0040080319A2288E01B1280F08C23EC00048
:10014A0000300318013EC10040088C0041088D00B0
:10015A0003208A110A128E000E0890040230CC0085
:10016A004B30CD00CD0BB728CC0BB72885018F0AB1
:0A017A008528100886005928C128C6
:1001840001340234043408341034203440348034CC
:02400E00F93F78
:00000001FF
