:020000000129D4
:10000600103083120313FD00FD0B072800000800C3
:0400160000000800DE
:10001A00083083120313FC002330FD00FD0B132864
:06002A00FC0B1328080086
:1000300083120313D21B1E2886111F288615521BFC
:100040002328061124280615D21A282886102928C4
:100050008614521A2D2806102E2806144A18322803
:1000600006163328061286160B208612D2193A2855
:1000700086113B28861552193F280611402806157F
:10008000D21844288610452886145218492806108C
:100090004A2806144A184E2806164F2806128616B5
:1000A0000B2086124A1C56280D20572803200800D2
:0E00B000831203134C088A004B0882000800DC
:1000BE00831203134A105108D20018204A14080064
:1000CE007928803083120313CD008C28C030CD00E8
:1000DE008C289430CD008C28D430CD008C288030E4
:1000EE00CD008C28831203134D08013A031968289A
:1000FE004D08023A03196D284D08033A031970286A
:10010E004D08043A0319732876284E03F0004D0863
:10011E00F0077008CD007008D20018204A10D001E8
:10012E0050084F07840000080319A52850084F07F0
:10013E0084000008D1005F20D00A97284A140800D6
:10014E0083160313861206120610861006118611E8
:10015E0083128612061286110611861006100D20C5
:10016E000D200D208614061486160B2086120D20E7
:10017E0086160B2086120D2086160B2086120D2059
:10018E00061086160B2086120D2086160B20861260
:10019E008610861586160B2086120D2086110614E3
:1001AE0086160B208612061086160B2086120D2040
:1001BE0086160B208612061486160B2086120D202C
:1001CE00061086160B208612861506158614061442
:0C01DE0086160B2086120D204A14080023
:1001EA0058208A110A128000840ACB0A0319CC0A01
:0801FA00F003031DF5280800C5
:100202009A2183160313870183128701A7200130E5
:10021200D20018200C30D20018200130CD00063058
:10022200CE003A30CF0067200230CD000630CE003B
:100232004230CF0067200B30FB002630FC005D30DF
:10024200FD00FD0B2229FC0B2229FB0B22290000B9
:1002520000000130D20018200130CD000130CE0064
:100262002930CF0067200230CD000530CE0020308B
:10027200CF0067200B30FB002630FC005D30FD0014
:10028200FD0B4129FC0B4129FB0B41290000000019
:10029200FF3087000B30FB002630FC005D30FD0094
:1002A200FD0B5129FC0B5129FB0B512900000000C9
:1002B20087010B30FB002630FC005D30FD00FD0B9A
:1002C2006029FC0B6029FB0B602900000000492912
:0202D200692998
:10033400203084002A3083120313F0006F30CB0086
:080344000130CC00F520080097
:1002DE0045346134733479345034493443343634CC
:0202EE000034DA
:1002F0006D3469346B3472346F3445346C34653426
:100300006B34743472346F346E3469346B346134EA
:020310000034B7
:100312004C346334643434346234693474340034B5
:100322006534783461346D3470346C34653400343F
:02400E00092F78
:00000001FF
