:020000004E2888
:0C000600831210088A000F088200080016
:1000120083120313C8010830CC00400DC80D4408F8
:10002200C80203181628C8070310C00DCC0B0E28EF
:020032000800C4
:10003400831203134008C100C0010830CC004108FA
:10004400C40C03182928CC0B2228C1010034031046
:100054002E28C40C0318C107C10CC00CCC0B2B28D0
:02006400080092
:1000660003208A110A128000840A8F0A0319900A53
:08007600C003031D332808003C
:10007E000A308312C4001208C00009204008910003
:0E008E000A30C4001A20400812028C0008003C
:10009C001C308316850086018312051411308600EE
:1000AC000230CB000430CC00BA30CD00CD0B5C2834
:1000BC00CC0B5C28CB0B5C2800006B30860002302C
:1000CC00CB000430CC00BA30CD00CD0B6B28CC0B60
:1000DC006B28CB0B6B2800006E3086000230CB00F7
:1000EC000430CC00BA30CD00CD0B7A28CC0B7A285A
:1000FC00CB0B7A2800005C3086000230CB00043039
:10010C00CC00BA30CD00CD0B8928CC0B8928CB0B79
:10011C00892800003E3086000230CB000430CC0031
:10012C00BA30CD00CD0B9828CC0B9828CB0B982847
:10013C0000003F208D012D300D020318D928110825
:10014C00FE3EC00000300318013EC10040088F0085
:10015C004108900003208A110A12860005148510AC
:10016C000230CC004B30CD00CD0BBA28CC0BBA28CA
:10017C000C08FE3EC00000300318013EC1004008D0
:10018C008F004108900003208A110A128600051086
:10019C0085140230CC004B30CD00CD0BD328CC0BCA
:1001AC00D3288D0AA12892018D0108300D02031865
:1001BC00FC280519E228DF28851DF4280D08083EC7
:1001CC00C00001300318013EC10040088F004108F7
:1001DC00900003208A110A128E00F5288E010E0859
:1001EC009204051DFA28F7288D0ADB289F28FD2884
:1001FC00773411346B346E345C343E341F346434D5
:04020C007F347C348B
:10021000013402340434083410342034403480343F
:02400E00FB3F76
:00000001FF
