:020000000929CC
:10000600710DF80DF90D7408F8027508031C750FCB
:10001600F902F00DF10D0F30FC00710DF80DF90D20
:100026007408701C1C28F8027508031C750FF90269
:100036002128F80775080318750FF907F00DF10D5B
:10004600FC0B102870182D287408F807750803187B
:08005600750FF9070000080016
:10005E00831203137008F100F0010830FC007108E0
:10006E00F40C03183E28FC0B3728F1010034031062
:10007E004328F40C0318F107F10CF00CFC0B40288C
:02008E00080068
:0E009000073083120313FD00FD0B4C280800FF
:10009E00831203137408003A031D5E287508003A94
:1000AE00031D5E28FF30F0007F30F100B728831269
:1000BE000313FD01F901F8017108700403190034EE
:1000CE0071087506FA00FA1BFD09FB01F51F74286D
:1000DE00F409F509F40A0319F50AF11F7B28F00952
:1000EE00F109F00A0319F10A71087504FA00FA1BF6
:1000FE00902803207B18A328FD1F0034F009F10976
:10010E00F00A0319F10AF809F909F80A0319F90AAC
:10011E000034F51F9F28F11B9B287108F900700809
:10012E00F800F101F0018328F101F001F00A00342A
:10013E00F109F009FB0A8028F80A0319F90A740874
:10014E007802031D832875087902031D8328F9019F
:10015E00F801F00A0319F10AF11F83280000FF3499
:02016E00080087
:0E0170008312031321088A0020088200080071
:10017E00B8208A110A128000840AA00A0319A10A63
:08018E00F003031DBF28080067
:100196000A3083120313F4000030F5002208F00041
:1001A6002308F1004F207008A5000A30F4002F2024
:1001B60070082202A40025080A3C0318E4280A3025
:0401C600A500080088
:1001CA00831203139F01C0309F0483161F179F17C2
:1001DA0083122608F000F00D7010F00D7010F00D6B
:1001EA00701070089F041F1448201F151F1DFF2838
:1001FA000000FB281F101E08F100F00183161E08DC
:08020A00F0040030F1040800CB
:100212003F30831603138500403083129F008430E1
:1002220083169F0088018601FF30870083128601B2
:100232008801FF3086000630FB001330FC00AD3031
:10024200FD00FD0B2229FC0B2229FB0B22290000B9
:1002520000005B3086007F3088000630FB001330E0
:10026200FC00AD30FD00FD0B3429FC0B3429FB0BE7
:100272003429000000000230A600E5207008831235
:10028200A2007108A300A30CA20CA313A30CA20C3E
:10029200A3130030A300CB2024087B3EF0000130E2
:1002A2000318013EF1007008A0007108A100B820F7
:1002B2008A110A12860025087B3EF00001300318DD
:1002C200013EF1007008A0007108A100B8208A1157
:1002D2000A1288000330FB008A30FC005530FD0012
:1002E200FD0B7129FC0B7129FB0B71290000000029
:0402F2003C297A2900
:1002F6003F3406345B344F3466346D347D344734D2
:060306007F34673401346E
:02400E00092F78
:00000001FF
