:0200000058287E
:0E0006008312031321088A00200882000800DC
:10001400A53083120313FD00FD0B0E280000000021
:020024000800D2
:1000260083120313AB012708F1000130F0007108B9
:1000360003192128F00D7010FF3E1B287008AA0036
:100046002608840070080005F10071080130031DC0
:100056000030F0002908F006031949282808003C5A
:10006600031839280A200A20A80331282608840004
:100076002A080005F10071080130031D0030F00068
:100086002908F00603194928FF30AB002B08F000B9
:02009600080060
:1000980003208A110A128000840AA00A0319A10AFF
:0800A800F003031D4C280800C1
:1000B0000630831603139F000130850086018701F7
:1000C0008312860187018501A201A5010230850006
:1000D0000330FD00FD0B6A2800000000850105309B
:1000E000A600A7010130A8000130A9001320700864
:1000F00003197C28A3017E280130A3002308A20451
:100100000130A400083024020318AD2800000000CC
:10011000000000000000000004308500A301051C61
:100120009328A301A2282408E03EF0000030031821
:10013000013EF1007008A0007108A10003208A119F
:100140000A12A3002308A20400000000000000001F
:10015000000000008501A40A8228A301A401083040
:1001600024020318DA28000000000000000000004C
:10017000000004308500A301051CC028A301CF287E
:100180002408E03EF00000300318013EF100700842
:10019000A0007108A10003208A110A12A3002308FD
:1001A000A504000000000000000000000000850120
:1001B000A40AAF2825088600220887006328DF28C4
:1001C0000134023404340834103420344034803490
:02400E00092F78
:00000001FF
