:020000001528C1
:0C000600831219088A0018088200080004
:1000120003208A110A128000840A980A0319990A95
:08002200C003031D09280800BA
:10002A00063083128C001E308D0001308E000330A2
:10003A008F00073090000F3091001F3092003F3040
:10004A0093007F30940095017830960058309700DD
:10005A008316850186010C0883128600013085000B
:10006A000630CB001330CC00AD30CD00CD0B3B2891
:10007A00CC0B3B28CB0B3B2800000000160886005F
:10008A00023085000630CB001330CC00AD30CD00F5
:10009A00CD0B4D28CC0B4D28CB0B4D280000000072
:1000AA0017088600043085000630CB001330CC00D8
:1000BA00AD30CD00CD0B5F28CC0B5F28CB0B5F2872
:1000CA00000000000D088600083085000630CB00CD
:1000DA001330CC00AD30CD00CD0B7128CC0B71287C
:1000EA00CB0B7128000000009A019B0180301B068F
:1000FA00C0008030023A4002031D852858301A0297
:10010A000318BB280C088600013085000230CC0099
:10011A004B30CD00CD0B8F28CC0B8F2816088600CC
:10012A00023085000230CC004B30CD00CD0B9B282D
:10013A00CC0B9B2817088600043085000230CC00BF
:10014A004B30CD00CD0BA728CC0BA7280D08860075
:10015A00083085000230CC004B30CD00CD0BB328DF
:10016A00CC0BB3289A0A03199B0A7B289A019B0194
:10017A0080301B06C00080304002031DC6280830AC
:10018A001A020318DC281A080E3E840000088600AA
:10019A00013085004130CC00EE30CD00CD0BD328A4
:1001AA00CC0BD32800009A0A03199B0ABD280C0815
:1001BA008600013085000630CB001330CC00AD300C
:1001CA00CD00CD0BE628CC0BE628CB0BE6280000A9
:1001DA0000009A019B0180301B06C000803040025B
:1001EA00031DF92808301A0203180F291A080E3EAF
:1001FA00840000088600023085004130CC00EE30D1
:10020A00CD00CD0B0629CC0B062900009A0A03194A
:10021A009B0AF02816088600023085000630CB00BB
:10022A001330CC00AD30CD00CD0B1929CC0B1929D8
:10023A00CB0B1929000000009A019B0180301B0694
:10024A00C00080304002031D2C2908301A0203180E
:10025A0042291A080E3E84000008860004308500F0
:10026A004130CC00EE30CD00CD0B3929CC0B3929E9
:10027A0000009A0A03199B0A2329170886000430EA
:10028A0085000630CB001330CC00AD30CD00CD0B4D
:10029A004C29CC0B4C29CB0B4C29000000009A01AD
:1002AA009B0180301B06C00080304002031D5F297D
:1002BA0008301A02031875291A080E3E840000082D
:1002CA008600083085004130CC00EE30CD00CD0BE1
:1002DA006C29CC0B6C2900009A0A03199B0A56292F
:1002EA000D088600083085000630CB001330CC009C
:1002FA00AD30CD00CD0B7F29CC0B7F29CB0B7F29CD
:08030A000000000030288829E2
:02400E00FB3F76
:00000001FF
