:020000004E2888
:0C000600831212088A0011088200080012
:1000120083120313C8010830CC00400DC80D4408F8
:10002200C80203181628C8070310C00DCC0B0E28EF
:020032000800C4
:10003400831203134008C100C0010830CC004108FA
:10004400C40C03182928CC0B2228C1010034031046
:100054002E28C40C0318C107C10CC00CCC0B2B28D0
:02006400080092
:1000660003208A110A128000840A910A0319920A4F
:08007600C003031D332808003C
:10007E000A308312C4000C08C0000920400890000A
:0E008E000A30C4001A2040080C028D00080041
:10009C000C308316850086018C0163300C0203182A
:1000AC009D283F208E018F0180300F06C0008030CC
:1000BC004002031D632864300E0203189B281008AD
:1000CC009F3EC00000300318013EC1004008910063
:1000DC004108920003208A110A128600051485102B
:1000EC000730CC007D30CD00CD0B7A28CC0B7A2894
:1000FC000D089F3EC00000300318013EC1004008AF
:10010C0091004108920003208A110A128600051002
:10011C0085140730CC007D30CD00CD0B9328CC0B53
:10012C0093288E0A03198F0A5A288C0A53285228AE
:02013C009E28FB
:10013E00773411346B346E345C343E341F34643493
:04014E007F347C344A
:02400E00F93F78
:00000001FF
