:020000002128B5
:0C000600831211088A0010088200080014
:100012000A3083120F02031C122804300E048500DA
:0800220014280E0885000800F7
:10002A0003208A110A128000840A900A0319910A8D
:08003A00C003031D1528080096
:1000420083168501FF308600831285010630CB00BE
:100052001330CC00AD30CD00CD0B2D28CC0B2D288C
:10006200CB0B2D280000000006088F008230CC0048
:10007200DD30CD00CD0B3B28CC0B3B28000000002F
:100082008C0108300C0203186F280C08C0000F08FE
:10009200C100400803195128C10CC113FF3E4B286F
:1000A20041088D00411C582803308E005A28013027
:1000B2008E0009200230CC004B30CD00CD0B5F28E2
:1000C200CC0B5F288E0109200230CC004B30CD00D2
:1000D200CD0B6928CC0B69288C0A42283528702858
:02400E00F93F78
:00000001FF
